:020000040800F2
:1000000000500020ED0000084101000843010008F5
:1000100045010008470100084901000800000000F0
:100020000000000000000000000000004B0100087C
:100030004D010008000000004F0100082D030008DA
:10004000510100085301000855010008570100083C
:10005000590100085B0100085D0100085F0100080C
:1000600061010008630100086501000867010008DC
:10007000690100086B0100086D0100086F010008AC
:10008000710100087301000875010008770100087C
:10009000790100087B0100087D0100087F0100084C
:1000A000810100088301000885010008870100081C
:1000B000890100088B0100088D0100088F010008EC
:1000C00091010008930100089501000897010008BC
:1000D000990100089B0100089D0100089F0100088C
:1000E000A1010008A3010008A501000808B500F05F
:1000F000C1F80D4A4FF0E023C3F8082D0B4B0C4A12
:1001000003E052F8041B43F8041B0A498B42F8D35E
:10011000094B02E0002243F8042B084A9342F9D32A
:1001200000F01EFEFEE700BF0000000800000020F7
:10013000200E000804000020040000200800002019
:10014000FEE7FEE7FEE7FEE7FEE7FEE7FEE7FEE787
:10015000FEE7FEE7FEE7FEE7FEE7FEE7FEE7FEE777
:10016000FEE7FEE7FEE7FEE7FEE7FEE7FEE7FEE767
:10017000FEE7FEE7FEE7FEE7FEE7FEE7FEE7FEE757
:10018000FEE7FEE7FEE7FEE7FEE7FEE7FEE7FEE747
:10019000FEE7FEE7FEE7FEE7FEE7FEE7FEE7FEE737
:1001A000FEE7FEE7FEE7000082B000230193009324
:1001B0002C4A136843F4803313602A4B1B6803F402
:1001C00000330093019B01330193009B1BB9019BFA
:1001D000B3F5A06FF1D1234B1B6813F4003F06D099
:1001E00001230093009B012B04D002B07047002331
:1001F0000093F7E71C4B1A6842F010021A601A6865
:1002000022F007021A601A6842F002021A60A3F58F
:1002100080535A685A605A685A605A6842F4806239
:100220005A605A6822F47C125A605A6842F4E81202
:100230005A601A6842F080721A600A4B1B6813F009
:10024000007FFAD0074B5A6822F003025A605A68BE
:1002500042F002025A60034B5B6803F00C03082B68
:10026000F9D1C2E7001002400020024008B5FFF7B4
:100270009BFF08BD08B5104B1A6842F001021A60D6
:1002800059680E4A0A405A601A6822F0847222F4B1
:1002900080321A601A6822F480221A605A6822F4A6
:1002A000FE025A604FF41F029A60FFF7DFFF044B13
:1002B0004FF000629A6008BD001002400000FFF895
:1002C00000ED00E0094B1B68094AA2FB03239B09D0
:1002D000013B4FF0E0225361064BF02183F82310DD
:1002E000002393610723136162B67047000000206A
:1002F000D34D621000ED00E082B001900A4B002265
:100300001A604FF0E022136943F001031361064BBA
:100310001A68019B9A42FAD34FF0E022136923F046
:100320000103136102B0704704000020024A136801
:1003300001331360704700BF04000020184A93691E
:1003400043F00903936117494B6843F004034B6082
:10035000154B196821F040611960196841F030614E
:100360001960196821F040411960196841F0804115
:100370001960916941F4804191610C4B1B68B3FB9A
:10038000F0F39BB2A2F55842138100239381938925
:100390009BB243F4005343F008039381704700BFBE
:1003A0000010024000000140000C0140000000204D
:1003B00008E0064B1B8813F0800FFAD092B2034B73
:1003C0009A8001300278002AF3D17047003801404A
:1003D00082B008E0124B1B8813F0800FFAD092B263
:1003E0000F4B9A8001300278002AF3D10D4B1B6825
:1003F000ADF804301B0C8DF806300DE0084B1B885F
:1004000013F0800FFAD002F108036B4413F8041CB8
:10041000034B99800132D2B2012AEFD902B0704762
:1004200000380140D80D0008084A936943F01003D2
:100430009361074B5A6822F470025A605A6842F47A
:1004400000125A604FF400521A61704700100240C7
:100450000010014000B583B000230193012000F09B
:100460002BF904210DEB010000F00AF918B9002066
:1004700003B05DF804FB9DF806309DF8070000EB23
:10048000032080B2F4E7000010B5084C236943F064
:10049000800323616420FFF72FFF636943F080032B
:1004A00063611420FFF728FF10BD00BF0008014062
:1004B00000B585B00023009301930293CDF80B3073
:1004C0004FEA102C8DF800C08DF801208DF8020045
:1004D00008E011F803C003F11300684400F810CCE1
:1004E0000133DBB29342F4D30332D2B26946112016
:1004F00000F0F4F800F0A6F805B05DF804FB000089
:1005000000B58BB0334B93E8030008908DF82410AE
:10051000052208A94FF48050FFF7CAFF0A20FFF711
:10052000EBFE4DF22D43ADF81C30002305938DF802
:10053000183001228DF814200AE05A1C28336B442D
:1005400013F80C1C02F128036B4403F8141CD3B2FB
:10055000012BF2D9052205A94FF48850FFF7A8FF17
:100560000A20FFF7C9FE1C4B93E803000390ADF887
:100570001010090C8DF81210072203A94FF49050A7
:10058000FFF796FF154B0293042202A941F20D20BA
:10059000FFF78EFF124B019304220DEB020141F293
:1005A0001120FFF785FF002300930422694641F2E2
:1005B0001520FFF77DFF0422694641F21920FFF75D
:1005C00077FF0422694641F21D20FFF771FF0BB04F
:1005D0005DF804FBB80D0008C00D0008000100AA7A
:1005E00000FF00AA00B589B000F0FAF8FFF732FF6B
:1005F00044F26343984203D0002009B05DF804FB45
:10060000FFF742FF0E4B93E803000690ADF81C1075
:10061000062206A9022000F061F800F013F800207D
:100620000190029003900490059062238DF80430AD
:10063000012201A9FFF73CFFFFF762FF0120DCE781
:10064000C80D000838B5002540F6C3139D4210D8E8
:100650000A4C636943F480536361442000F0D8F886
:10066000236943F480532361FF2804D00135ADB2E0
:10067000EAE7002000E0012038BD00BF000C014087
:1006800070B504460D46FFF7DDFF00B970BD094E99
:10069000736943F480537361442000F0B9F829462C
:1006A000204600F0C9F8336943F4805333610120D8
:1006B000ECE700BF000C014010B5074C636943F440
:1006C0008053636100F094F8236943F480532361FD
:1006D000FFF7B8FF10BD00BF000C014070B50D461C
:1006E0001646094C636943F48053636100F080F857
:1006F0003146284600F0AEF8236943F48053236165
:10070000FFF7A0FF70BD00BF000C0140074A9369CE
:1007100043F008039361064B1A6822F00F021A6037
:100720001A6842F001021A60704700BF00100240D0
:10073000000C01401D4A936943F0090393611C4B6F
:10074000596841F440315960596821F44021596099
:10075000196941F480511961596821F440015960C7
:10076000596841F430015960596821F0706159604D
:10077000596841F080615960596821F040415960E1
:10078000596841F030415960D36943F48043D361E3
:10079000084B00221A801A8892B242F449721A80D9
:1007A0001A8892B242F040021A807047001002404C
:1007B000000C014000380040074A936943F00403ED
:1007C0009361064B1A6822F070421A601A6842F070
:1007D00000521A60704700BF00100240000801403C
:1007E00008B5FFF7A7FFFFF7E7FFFFF78FFF08BD8B
:1007F000064B1B8913F0020FFAD080B2034B98818D
:10080000024B1B8913F0800FFAD17047003800406B
:1008100008B5FFF7EDFF074B1B8913F0010FFAD066
:10082000044B9889C0B2034B1B8913F0800FFAD197
:1008300008BD00BF0038004070B506460D460024D4
:1008400005E00020FFF7E4FF30550134E4B2AC428C
:10085000F7D370BD70B506460D46002404E0305D48
:10086000FFF7C6FF0134E4B2AC42F8D370BD2DE906
:10087000F047C0B04B238DF80C30012203A90020B3
:10088000FFF716FE03268DF81060012204A94FF42D
:100890008070FFF70DFE10238DF81430012205A99A
:1008A00040F20110FFF704FE4FF002088DF81880A7
:1008B000012206A94FF48170FFF7FAFD00258DF89B
:1008C00004508DF805508DF80650324601A92020BD
:1008D000FFF704FF8DF81C60012207A94FF40050B8
:1008E000FFF7E6FD8DF82050012208A942F2010031
:1008F000FFF7DEFD08278DF82470012209A942F2D6
:100900005100FFF7D5FD3C238DF8283001220AA9BC
:100910004FF48040FFF7CCFD8DF82C7001220BA91D
:1009200044F20100FFF7C4FD8DF8305001220CA9FC
:1009300044F20200FFF7BCFD8DF8345001220DA9EE
:1009400044F20300FFF7B4FD20248DF83840012263
:100950000EA944F20600FFF7ABFD4FF0FF098DF83A
:100960003C9001220FA944F20700FFF7A1FD8DF88A
:100970004050012210A942F21900FFF799FD8DF8AD
:100980004470012211A942F21A00FFF791FD8DF87F
:100990004860012212A942F21B00FFF789FDC02323
:1009A0008DF84C30012213A942F21C00FFF780FDA4
:1009B0008DF85050012214A942F21D00FFF778FD76
:1009C000B0238DF85430012215A942F21E00FFF722
:1009D0006FFD8DF85840012216A942F21F00FFF763
:1009E00067FD8DF85C50012217A942F22200FFF743
:1009F0005FFD5E238DF86030012218A942F22300CA
:100A0000FFF756FD05238DF86430012219A942F243
:100A10002400FFF74DFD4FF0760A8DF868A0012203
:100A20001AA942F22500FFF743FD1A238DF86C3016
:100A300001221BA942F22600FFF73AFD07238DF899
:100A4000703001221CA942F22700FFF731FD8DF81A
:100A5000749001221DA942F22800FFF729FD8DF8AC
:100A6000788001221EA942F22900FFF721FD8DF8AE
:100A70007C5001221FA942F22A00FFF719FD8DF8D0
:100A80008050012220A942F22B00FFF711FD8DF8C2
:100A90008450012221A942F22C00FFF709FD122304
:100AA0008DF88830012222A942F22D00FFF700FDC7
:100AB00080238DF88C30012223A942F22E00FFF70B
:100AC000F7FC16238DF89030012224A942F22F0062
:100AD000FFF7EEFC01248DF89440224625A942F24E
:100AE0003000FFF7E5FC8DF898A0224626A942F2D7
:100AF0003100FFF7DDFCE0238DF89C30224627A96A
:100B000042F23200FFF7D4FCE2238DF8A0302246F7
:100B100028A942F23500FFF7CBFC11238DF8A43051
:100B2000224629A942F23800FFF7C2FC4FF0150A0D
:100B30008DF8A8A022462AA942F23900FFF7B8FC96
:100B40008DF8ACA022462BA942F23A00FFF7B0FC88
:100B5000A4238DF8B03022462CA942F24200FFF7C0
:100B6000A7FC8DF8B46022462DA942F24300FFF79E
:100B70009FFCD6238DF8B83022462EA942F24400BD
:100B8000FFF796FC8DF8BC6022462FA942F2450083
:100B9000FFF78EFC8DF8C050224630A942F2460085
:100BA000FFF786FCDE238DF8C430224631A942F2DD
:100BB0004700FFF77DFC40238DF8C830224632A95C
:100BC00042F24E00FFF774FC8DF8CC50224633A958
:100BD00042F24C00FFF76CFC8DF8D090224634A90D
:100BE00042F24A00FFF764FC0C268DF8D4602246DE
:100BF00035A942F24B00FFF75BFC2246294642F240
:100C00000C10FFF755FC2246314642F20610FFF762
:100C10004FFC8DF8D880224636A941F20400FFF738
:100C200047FC14238DF8DC30224637A941F201003D
:100C3000FFF73EFC8DF8E070224638A941F2030030
:100C4000FFF736FC8DF8E440224639A94FF488506E
:100C5000FFF72EFCB4238DF8E83022463AA941F282
:100C60000110FFF725FC2B238DF8EC3022463BA921
:100C700041F20210FFF71CFC8DF8F05022463CA90F
:100C80004FF49050FFF714FC8DF8F45022463DA924
:100C900041F20620FFF70CFC8DF8F85022463EA9E1
:100CA00041F20D20FFF704FC0A238DF8FC302246A8
:100CB0003FA941F20E20FFF7FBFB8DF804508DF8A1
:100CC00005508DF806508DF807508DF808503023E8
:100CD0008DF809308DF80A5004220DEB0201322004
:100CE000FFF7FCFC40B0BDE8F087000010B592B003
:100CF000032210A92020FFF7F1FC9DF8423013F0E9
:100D0000100F06D1042210A93220FFF7E7FC12B021
:100D100010BD402269467720FFF7E0FC0D48FFF741
:100D200047FB002400E001343F2C0ED804F14803B7
:100D30006B4413F8480CFFF73BFB9DF80130012B87
:100D4000F1D10548FFF734FBEDE70448FFF740FB1E
:100D5000D8E700BFDC0D0008EC0D0008FC0D000812
:100D600008B5FFF761FBFFF7ADFA4FF4E130FFF78D
:100D7000E5FA0B48FFF72CFB06E00A48FFF728FBD3
:100D80004FF47A70FFF7B8FAFFF72CFC0028F4D084
:100D90000548FFF71DFBFFF76AFDFFF7A7FFFEE71A
:100DA000F40D0008000E00080C0E00080000000002
:100DB00000000000000808000414000031000000DA
:100DC0008500020100303000010001C9C38000002D
:100DD000A98001E0780011110D0A000052656365D9
:100DE0006976656420446174613A2000307830315E
:100DF000000000004E616D61737465210000000009
:100E0000526164696F206572726F72005261646929
:100E10006F207375636365737366756C6C2E2E003B
:040E200000A24A04DE
:0400000508000000EF
:00000001FF
